:100000000C9466000C947A000C9478000C947800A0
:100010000C9478000C9478000C9478000C94780080
:100020000C9478000C948B000C9478000C9478005D
:100030000C9478000C9478000C9478000C94780060
:100040000C9478000C9478000C9478000C94780050
:100050000C9478000C9478000C9478000C94780040
:100060000C9478000C94780042656D2020202000CC
:100070000056696E646F202121212020202020203D
:1000800020202020202000002020202050726F6E91
:10009000746F2120202020200000467265713A00F4
:1000A00000526F743A000020202020204552524F09
:1000B000212020202020200000202020202020207F
:1000C00020202020202020202000000011241FBEFE
:1000D000CFEFD8E0DEBFCDBF11E0A0E0B1E001C0BE
:1000E0001D92A632B107E1F70E9442010C94B105BE
:1000F0000C9400001F920F920FB60F9211248F9351
:100100001092700083E0809304018F910F900FBED6
:100110000F901F9018951F920F920FB60F921124F7
:100120002F933F934F935F936F937F938F939F93FF
:10013000AF93BF93CF93DF93EF93FF93809106012B
:10014000823320F48F5F809306013FC0C4E8D0E083
:100150008881998168E170E00E949D0528E730E080
:10016000629FC001639F900D729F900D1124909328
:10017000010180930001BC0180E090E00E94AC048A
:1001800026E53EE049E450E40E943A0520E030E0F4
:1001900040EF51E40E94180420E030E040EC51E4CC
:1001A0000E943A0520E030E040E752E40E94180443
:1001B0000E948004709303016093020119821882E7
:1001C0001092060182E08093040184E68093B200DD
:1001D000FF91EF91DF91CF91BF91AF919F918F915F
:1001E0007F916F915F914F913F912F910F900FBE33
:1001F0000F901F9018958CE284B92C9A8DB58E7F44
:100200008DBD8CB583758CBD8CB583658CBD089513
:100210008EBD0DB407FEFDCF8EB508958FEF99E624
:10022000A8E181509040A040E1F700C000002A986A
:100230008DE00E94080180E00E9408018093250162
:1002400080E00E940801809324012A9A8695869571
:10025000869590E02091250130E0220F331F2295F2
:100260003295307F3227207F3227822B932B909339
:100270001A0180931901AFE9BFE01197F1F700C0AF
:10028000000008952F923F924F925F926F927F925B
:100290008F929F92AF92BF92CF92DF92EF92FF9296
:1002A0000F931F93DF93CF9300D000D00F92CDB761
:1002B000DEB780EC8AB98FE18BB98FE387B918B8C4
:1002C00087E690E00E9473030E94FB000E94D30225
:1002D00081E060E00E949C028AE08093690083E0F4
:1002E0008DBB83E884BD15BC17BC1092800087E8E5
:1002F0008093810010926F0082E08093B00087E0CD
:100300008093B10081E0809370000F2EF8E6AF2E4D
:10031000F0E0BF2EF02D0F2EF1E78F2EF0E09F2E94
:10032000F02DFF24F3940F2EF1EA6F2EF0E07F2ED4
:10033000F02D6E010894C11CD11C0F2EFAE94F2E2E
:10034000F0E05F2EF02D0F2EF4E82F2E3324F02D49
:1003500009EB10E0EE246894E1F80E940E01609130
:10036000190170911A0180E090E00E94AC049B0199
:10037000AC0160E070EF8FE795E40E94B30320E0EA
:1003800030E04FE753E40E943A0520E030ED4FE7BC
:1003900055E40E9418049B01AC0160E070E08FE717
:1003A00093E40E94B30320910401213011F1213024
:1003B00030F0223009F44BC0233079F6B4C084E821
:1003C00060E00E949C02C5010E944B0385EC60E046
:1003D0000E949C02C4010E944B038FEF97EAA1E6A2
:1003E00081509040A040E1F700C00000F09204016D
:1003F000B4CF80E860E00E949C02C8010E944B03D9
:1004000080E860E00E949C0288E890E00E944B0334
:1004100080EC60E00E949C02C8010E944B03489956
:100420009CCFE0920401789480E860E00E949C02F6
:10043000C8010E944B0380EC60E00E949C02C8014E
:100440000E944B0393E894BDA3E0A5BD86CF0E9414
:10045000800467BD80E860E00E949C02C3010E94A6
:100460004B038091000190910101B6010E9460034D
:1004700087E860E00E949C028D816F2D0E949C02A3
:100480008C816F2D0E949C028B816F2D0E949C029B
:100490008A816F2D0E949C0289816F2D0E949C028F
:1004A00080E26F2D0E949C0282E56F2D0E949C02CB
:1004B00080E56F2D0E949C028DE46F2D0E949C02AE
:1004C00080EC60E00E949C02C2010E944B0380917C
:1004D000020190910301B6010E94600387EC60E085
:1004E0000E949C028D816F2D0E949C028C816F2D39
:1004F0000E949C028B816F2D0E949C028A816F2D2D
:100500000E949C0289816F2D0E949C0280E26F2DC7
:100510000E949C0288E46F2D0E949C028AE76F2D46
:100520000E949C021ACF14BC15BC17BCF1011182A9
:100530001082F092040111CF662311F4459801C096
:10054000459A98B1282F22952F70907F922B98B9B9
:1005500095E09A95F1F70000449A95E09A95F1F7A5
:100560000000449890EF9A95F1F798B1282F2F70DA
:10057000907F922B98B995E09A95F1F70000449AF4
:1005800095E09A95F1F70000449890EF9A95F1F76D
:10059000662341F4843030F48FE39FE10197F1F753
:1005A00000C000000895459844988FEF99EFA0E0AF
:1005B00081509040A040E1F700C0000088B1807FEA
:1005C000836088B995E09A95F1F70000449AA5E018
:1005D000AA95F1F700004498B0EFBA95F1F78FE1D2
:1005E0009EE40197F1F700C0000095E09A95F1F7BD
:1005F0000000449AA5E0AA95F1F700004498B0EFF6
:10060000BA95F1F78FE193E00197F1F700C0000090
:1006100095E09A95F1F70000449AA5E0AA95F1F7C4
:1006200000004498B0EFBA95F1F788B1807F8260FE
:1006300088B985E08A95F1F70000449A95E09A958B
:10064000F1F700004498A0EFAA95F1F788E260E086
:100650000E949C0288E060E00E949C0281E060E0D1
:100660000E949C028CE060E00E949C0280E860E0B6
:100670000E949C020895CF93DF93EC018881882328
:1006800039F0219661E00E949C0289918823D1F77C
:10069000DF91CF910895CF93DF93EC01FE01249178
:1006A000222359F0FC01849161E00E949C02219672
:1006B000CE01FE0124912223A9F7DF91CF91089565
:1006C000FB0120E3208321832283238324832AE0E8
:1006D00030E0B9010E949D05805D8193862F972FA0
:1006E0000097B9F708959093C5008093C4001092C5
:1006F000C00088E18093C10086E08093C200089525
:10070000E0ECF0E0908195FFFDCF8093C600089566
:10071000E0ECF0E080818823ECF78091C60008953A
:10072000CF93DF93EC018881882331F021960E94DA
:10073000800389918823D9F7DF91CF910895CF93D2
:10074000DF93EC01FE012491222351F0FC018491FE
:100750000E9480032196CE01FE0124912223B1F74D
:10076000DF91CF9108955058BB27AA270ED048C1DA
:1007700039D130F03ED120F031F49F3F11F41EF416
:100780002EC10EF4E095E7FB24C1E92F4AD180F396
:10079000BA17620773078407950718F071F49EF57E
:1007A00062C10EF4E0950B2EBA2FA02D0B01B901FA
:1007B00090010C01CA01A0011124FF27591B99F0D7
:1007C000593F50F4503E68F11A16F040A22F232FE3
:1007D000342F4427585FF3CF469537952795A79533
:1007E000F0405395C9F77EF41F16BA0B620B730BDA
:1007F000840BBAF09150A1F0FF0FBB1F661F771F4B
:10080000881FC2F70EC0BA0F621F731F841F48F4FF
:10081000879577956795B795F7959E3F08F0B3CF85
:100820009395880F08F09927EE0F9795879508956F
:100830000CD0E6C0DED040F0D5D030F021F45F3FE0
:1008400019F0C7C0511110C1CAC0EBD098F3992359
:10085000C9F35523B1F3951B550BBB27AA27621784
:100860007307840738F09F5F5F4F220F331F441FC9
:10087000AA1FA9F333D00E2E3AF0E0E830D0915001
:100880005040E695001CCAF729D0FE2F27D0660FEE
:10089000771F881FBB1F261737074807AB07B0E82D
:1008A00009F0BB0B802DBF01FF2793585F4F2AF043
:1008B0009E3F510568F08DC0D7C05F3FECF3983E76
:1008C000DCF3869577956795B795F7959F5FC9F7A0
:1008D000880F911D9695879597F90895E1E0660F29
:1008E000771F881FBB1F621773078407BA0720F0A2
:1008F000621B730B840BBA0BEE1F88F7E09508950B
:1009000098D088F09F5790F0B92F9927B751A0F051
:10091000D1F0660F771F881F991F1AF0BA95C9F793
:1009200012C0B13081F09FD0B1E008959CC0672F14
:10093000782F8827B85F39F0B93FCCF38695779543
:100940006795B395D9F73EF490958095709561952C
:100950007F4F8F4F9F4F0895E89409C097FB3EF457
:1009600090958095709561957F4F8F4F9F4F9923FC
:10097000A9F0F92F96E9BB279395F695879577957A
:100980006795B795F111F8CFFAF4BB0F11F460FF3A
:100990001BC06F5F7F4F8F4F9F4F16C0882311F092
:1009A00096E911C0772321F09EE8872F762F05C0A6
:1009B000662371F096E8862F70E060E02AF09A9541
:1009C000660F771F881FDAF7880F9695879597F936
:1009D000089597F99F6780E870E060E008959FEFC1
:1009E00080EC089500240A941616170618060906C6
:1009F000089500240A941216130614060506089595
:100A0000092E0394000C11F4882352F0BB0F40F41C
:100A1000BF2B11F460FF04C06F5F7F4F8F4F9F4F5C
:100A2000089557FD9058440F551F59F05F3F71F0DE
:100A30004795880F97FB991F61F09F3F79F0879545
:100A40000895121613061406551FF2CF4695F1DFCE
:100A500008C0161617061806991FF1CF869571055E
:100A6000610508940895E894BB2766277727CB0192
:100A700097F908950BD0C4CFB5DF28F0BADF18F08E
:100A8000952309F0A6CFABCF1124EECFCADFA0F398
:100A9000959FD1F3950F50E0551F629FF001729F13
:100AA000BB27F00DB11D639FAA27F00DB11DAA1F32
:100AB000649F6627B00DA11D661F829F2227B00D7F
:100AC000A11D621F739FB00DA11D621F839FA00D0A
:100AD000611D221F749F3327A00D611D231F849F5A
:100AE000600D211D822F762F6A2F11249F575040B1
:100AF0008AF0E1F088234AF0EE0FFF1FBB1F661F4C
:100B0000771F881F91505040A9F79E3F510570F004
:100B100060CFAACF5F3FECF3983EDCF386957795E4
:100B20006795B795F795E7959F5FC1F7FE2B880FFF
:100B3000911D9695879597F90895AA1BBB1B51E1C6
:100B400007C0AA1FBB1FA617B70710F0A61BB70B3D
:100B5000881F991F5A95A9F780959095BC01CD01E2
:060B60000895F894FFCF98
:00000001FF
